{
  "_format": "hh-sol-artifact-1",
  "contractName": "VoteToken",
  "sourceName": "contracts/token.sol",
  "abi": [
    {
      "inputs": [
        {
          "internalType": "uint256",
          "name": "initialSupply",
          "type": "uint256"
        },
        {
          "internalType": "address",
          "name": "_registrationContract",
          "type": "address"
        }
      ],
      "stateMutability": "nonpayable",
      "type": "constructor"
    },
    {
      "inputs": [
        {
          "internalType": "address",
          "name": "spender",
          "type": "address"
        },
        {
          "internalType": "uint256",
          "name": "allowance",
          "type": "uint256"
        },
        {
          "internalType": "uint256",
          "name": "needed",
          "type": "uint256"
        }
      ],
      "name": "ERC20InsufficientAllowance",
      "type": "error"
    },
    {
      "inputs": [
        {
          "internalType": "address",
          "name": "sender",
          "type": "address"
        },
        {
          "internalType": "uint256",
          "name": "balance",
          "type": "uint256"
        },
        {
          "internalType": "uint256",
          "name": "needed",
          "type": "uint256"
        }
      ],
      "name": "ERC20InsufficientBalance",
      "type": "error"
    },
    {
      "inputs": [
        {
          "internalType": "address",
          "name": "approver",
          "type": "address"
        }
      ],
      "name": "ERC20InvalidApprover",
      "type": "error"
    },
    {
      "inputs": [
        {
          "internalType": "address",
          "name": "receiver",
          "type": "address"
        }
      ],
      "name": "ERC20InvalidReceiver",
      "type": "error"
    },
    {
      "inputs": [
        {
          "internalType": "address",
          "name": "sender",
          "type": "address"
        }
      ],
      "name": "ERC20InvalidSender",
      "type": "error"
    },
    {
      "inputs": [
        {
          "internalType": "address",
          "name": "spender",
          "type": "address"
        }
      ],
      "name": "ERC20InvalidSpender",
      "type": "error"
    },
    {
      "anonymous": false,
      "inputs": [
        {
          "indexed": true,
          "internalType": "address",
          "name": "owner",
          "type": "address"
        },
        {
          "indexed": true,
          "internalType": "address",
          "name": "spender",
          "type": "address"
        },
        {
          "indexed": false,
          "internalType": "uint256",
          "name": "value",
          "type": "uint256"
        }
      ],
      "name": "Approval",
      "type": "event"
    },
    {
      "anonymous": false,
      "inputs": [
        {
          "indexed": true,
          "internalType": "address",
          "name": "from",
          "type": "address"
        },
        {
          "indexed": true,
          "internalType": "address",
          "name": "to",
          "type": "address"
        },
        {
          "indexed": false,
          "internalType": "uint256",
          "name": "value",
          "type": "uint256"
        }
      ],
      "name": "Transfer",
      "type": "event"
    },
    {
      "inputs": [
        {
          "internalType": "address",
          "name": "owner",
          "type": "address"
        },
        {
          "internalType": "address",
          "name": "spender",
          "type": "address"
        }
      ],
      "name": "allowance",
      "outputs": [
        {
          "internalType": "uint256",
          "name": "",
          "type": "uint256"
        }
      ],
      "stateMutability": "view",
      "type": "function"
    },
    {
      "inputs": [
        {
          "internalType": "address",
          "name": "spender",
          "type": "address"
        },
        {
          "internalType": "uint256",
          "name": "value",
          "type": "uint256"
        }
      ],
      "name": "approve",
      "outputs": [
        {
          "internalType": "bool",
          "name": "",
          "type": "bool"
        }
      ],
      "stateMutability": "nonpayable",
      "type": "function"
    },
    {
      "inputs": [
        {
          "internalType": "address",
          "name": "account",
          "type": "address"
        }
      ],
      "name": "balanceOf",
      "outputs": [
        {
          "internalType": "uint256",
          "name": "",
          "type": "uint256"
        }
      ],
      "stateMutability": "view",
      "type": "function"
    },
    {
      "inputs": [],
      "name": "decimals",
      "outputs": [
        {
          "internalType": "uint8",
          "name": "",
          "type": "uint8"
        }
      ],
      "stateMutability": "view",
      "type": "function"
    },
    {
      "inputs": [
        {
          "internalType": "address",
          "name": "user",
          "type": "address"
        }
      ],
      "name": "mintForUser",
      "outputs": [],
      "stateMutability": "nonpayable",
      "type": "function"
    },
    {
      "inputs": [],
      "name": "name",
      "outputs": [
        {
          "internalType": "string",
          "name": "",
          "type": "string"
        }
      ],
      "stateMutability": "view",
      "type": "function"
    },
    {
      "inputs": [],
      "name": "registrationContract",
      "outputs": [
        {
          "internalType": "address",
          "name": "",
          "type": "address"
        }
      ],
      "stateMutability": "view",
      "type": "function"
    },
    {
      "inputs": [
        {
          "internalType": "address",
          "name": "_registrationContract",
          "type": "address"
        }
      ],
      "name": "setRegistrationContract",
      "outputs": [],
      "stateMutability": "nonpayable",
      "type": "function"
    },
    {
      "inputs": [],
      "name": "symbol",
      "outputs": [
        {
          "internalType": "string",
          "name": "",
          "type": "string"
        }
      ],
      "stateMutability": "view",
      "type": "function"
    },
    {
      "inputs": [],
      "name": "totalSupply",
      "outputs": [
        {
          "internalType": "uint256",
          "name": "",
          "type": "uint256"
        }
      ],
      "stateMutability": "view",
      "type": "function"
    },
    {
      "inputs": [
        {
          "internalType": "address",
          "name": "to",
          "type": "address"
        },
        {
          "internalType": "uint256",
          "name": "value",
          "type": "uint256"
        }
      ],
      "name": "transfer",
      "outputs": [
        {
          "internalType": "bool",
          "name": "",
          "type": "bool"
        }
      ],
      "stateMutability": "nonpayable",
      "type": "function"
    },
    {
      "inputs": [
        {
          "internalType": "address",
          "name": "from",
          "type": "address"
        },
        {
          "internalType": "address",
          "name": "to",
          "type": "address"
        },
        {
          "internalType": "uint256",
          "name": "value",
          "type": "uint256"
        }
      ],
      "name": "transferFrom",
      "outputs": [
        {
          "internalType": "bool",
          "name": "",
          "type": "bool"
        }
      ],
      "stateMutability": "nonpayable",
      "type": "function"
    }
  ],
  "bytecode": "0x60806040523480156200001157600080fd5b5060405162001cfa38038062001cfa833981810160405281019062000037919062000486565b6040518060400160405280600981526020017f566f7465546f6b656e00000000000000000000000000000000000000000000008152506040518060400160405280600381526020017f56544b00000000000000000000000000000000000000000000000000000000008152508160039081620000b491906200073d565b508060049081620000c691906200073d565b505050620000db33836200012460201b60201c565b80600560006101000a81548173ffffffffffffffffffffffffffffffffffffffff021916908373ffffffffffffffffffffffffffffffffffffffff160217905550505062000927565b600073ffffffffffffffffffffffffffffffffffffffff168273ffffffffffffffffffffffffffffffffffffffff1603620001995760006040517fec442f0500000000000000000000000000000000000000000000000000000000815260040162000190919062000835565b60405180910390fd5b620001ad60008383620001b160201b60201c565b5050565b600073ffffffffffffffffffffffffffffffffffffffff168373ffffffffffffffffffffffffffffffffffffffff160362000207578060026000828254620001fa919062000881565b92505081905550620002dd565b60008060008573ffffffffffffffffffffffffffffffffffffffff1673ffffffffffffffffffffffffffffffffffffffff1681526020019081526020016000205490508181101562000296578381836040517fe450d38c0000000000000000000000000000000000000000000000000000000081526004016200028d93929190620008cd565b60405180910390fd5b8181036000808673ffffffffffffffffffffffffffffffffffffffff1673ffffffffffffffffffffffffffffffffffffffff16815260200190815260200160002081905550505b600073ffffffffffffffffffffffffffffffffffffffff168273ffffffffffffffffffffffffffffffffffffffff160362000328578060026000828254039250508190555062000375565b806000808473ffffffffffffffffffffffffffffffffffffffff1673ffffffffffffffffffffffffffffffffffffffff168152602001908152602001600020600082825401925050819055505b8173ffffffffffffffffffffffffffffffffffffffff168373ffffffffffffffffffffffffffffffffffffffff167fddf252ad1be2c89b69c2b068fc378daa952ba7f163c4a11628f55a4df523b3ef83604051620003d491906200090a565b60405180910390a3505050565b600080fd5b6000819050919050565b620003fb81620003e6565b81146200040757600080fd5b50565b6000815190506200041b81620003f0565b92915050565b600073ffffffffffffffffffffffffffffffffffffffff82169050919050565b60006200044e8262000421565b9050919050565b620004608162000441565b81146200046c57600080fd5b50565b600081519050620004808162000455565b92915050565b60008060408385031215620004a0576200049f620003e1565b5b6000620004b0858286016200040a565b9250506020620004c3858286016200046f565b9150509250929050565b600081519050919050565b7f4e487b7100000000000000000000000000000000000000000000000000000000600052604160045260246000fd5b7f4e487b7100000000000000000000000000000000000000000000000000000000600052602260045260246000fd5b600060028204905060018216806200054f57607f821691505b60208210810362000565576200056462000507565b5b50919050565b60008190508160005260206000209050919050565b60006020601f8301049050919050565b600082821b905092915050565b600060088302620005cf7fffffffffffffffffffffffffffffffffffffffffffffffffffffffffffffffff8262000590565b620005db868362000590565b95508019841693508086168417925050509392505050565b6000819050919050565b60006200061e620006186200061284620003e6565b620005f3565b620003e6565b9050919050565b6000819050919050565b6200063a83620005fd565b62000652620006498262000625565b8484546200059d565b825550505050565b600090565b620006696200065a565b620006768184846200062f565b505050565b5b818110156200069e57620006926000826200065f565b6001810190506200067c565b5050565b601f821115620006ed57620006b7816200056b565b620006c28462000580565b81016020851015620006d2578190505b620006ea620006e18562000580565b8301826200067b565b50505b505050565b600082821c905092915050565b60006200071260001984600802620006f2565b1980831691505092915050565b60006200072d8383620006ff565b9150826002028217905092915050565b6200074882620004cd565b67ffffffffffffffff811115620007645762000763620004d8565b5b62000770825462000536565b6200077d828285620006a2565b600060209050601f831160018114620007b55760008415620007a0578287015190505b620007ac85826200071f565b8655506200081c565b601f198416620007c5866200056b565b60005b82811015620007ef57848901518255600182019150602085019450602081019050620007c8565b868310156200080f57848901516200080b601f891682620006ff565b8355505b6001600288020188555050505b505050505050565b6200082f8162000441565b82525050565b60006020820190506200084c600083018462000824565b92915050565b7f4e487b7100000000000000000000000000000000000000000000000000000000600052601160045260246000fd5b60006200088e82620003e6565b91506200089b83620003e6565b9250828201905080821115620008b657620008b562000852565b5b92915050565b620008c781620003e6565b82525050565b6000606082019050620008e4600083018662000824565b620008f36020830185620008bc565b620009026040830184620008bc565b949350505050565b6000602082019050620009216000830184620008bc565b92915050565b6113c380620009376000396000f3fe608060405234801561001057600080fd5b50600436106100b45760003560e01c80636325088711610071578063632508871461019157806370a08231146101ad57806395d89b41146101dd578063a9059cbb146101fb578063d3db03cc1461022b578063dd62ed3e14610247576100b4565b806306fdde03146100b9578063095ea7b3146100d757806318160ddd146101075780631e522c3e1461012557806323b872dd14610143578063313ce56714610173575b600080fd5b6100c1610277565b6040516100ce9190610d59565b60405180910390f35b6100f160048036038101906100ec9190610e14565b610309565b6040516100fe9190610e6f565b60405180910390f35b61010f61032c565b60405161011c9190610e99565b60405180910390f35b61012d610336565b60405161013a9190610ec3565b60405180910390f35b61015d60048036038101906101589190610ede565b61035c565b60405161016a9190610e6f565b60405180910390f35b61017b61038b565b6040516101889190610f4d565b60405180910390f35b6101ab60048036038101906101a69190610f68565b610394565b005b6101c760048036038101906101c29190610f68565b610450565b6040516101d49190610e99565b60405180910390f35b6101e5610498565b6040516101f29190610d59565b60405180910390f35b61021560048036038101906102109190610e14565b61052a565b6040516102229190610e6f565b60405180910390f35b61024560048036038101906102409190610f68565b61054d565b005b610261600480360381019061025c9190610f95565b610622565b60405161026e9190610e99565b60405180910390f35b60606003805461028690611004565b80601f01602080910402602001604051908101604052809291908181526020018280546102b290611004565b80156102ff5780601f106102d4576101008083540402835291602001916102ff565b820191906000526020600020905b8154815290600101906020018083116102e257829003601f168201915b5050505050905090565b6000806103146106a9565b90506103218185856106b1565b600191505092915050565b6000600254905090565b600560009054906101000a900473ffffffffffffffffffffffffffffffffffffffff1681565b6000806103676106a9565b90506103748582856106c3565b61037f858585610757565b60019150509392505050565b60006012905090565b600560009054906101000a900473ffffffffffffffffffffffffffffffffffffffff1673ffffffffffffffffffffffffffffffffffffffff163373ffffffffffffffffffffffffffffffffffffffff1614610424576040517f08c379a000000000000000000000000000000000000000000000000000000000815260040161041b90611081565b60405180910390fd5b61044d8161043061038b565b600a61043c9190611203565b6001610448919061124e565b61084b565b50565b60008060008373ffffffffffffffffffffffffffffffffffffffff1673ffffffffffffffffffffffffffffffffffffffff168152602001908152602001600020549050919050565b6060600480546104a790611004565b80601f01602080910402602001604051908101604052809291908181526020018280546104d390611004565b80156105205780601f106104f557610100808354040283529160200191610520565b820191906000526020600020905b81548152906001019060200180831161050357829003601f168201915b5050505050905090565b6000806105356106a9565b9050610542818585610757565b600191505092915050565b600073ffffffffffffffffffffffffffffffffffffffff16600560009054906101000a900473ffffffffffffffffffffffffffffffffffffffff1673ffffffffffffffffffffffffffffffffffffffff16146105de576040517f08c379a00000000000000000000000000000000000000000000000000000000081526004016105d590611302565b60405180910390fd5b80600560006101000a81548173ffffffffffffffffffffffffffffffffffffffff021916908373ffffffffffffffffffffffffffffffffffffffff16021790555050565b6000600160008473ffffffffffffffffffffffffffffffffffffffff1673ffffffffffffffffffffffffffffffffffffffff16815260200190815260200160002060008373ffffffffffffffffffffffffffffffffffffffff1673ffffffffffffffffffffffffffffffffffffffff16815260200190815260200160002054905092915050565b600033905090565b6106be83838360016108cd565b505050565b60006106cf8484610622565b90507fffffffffffffffffffffffffffffffffffffffffffffffffffffffffffffffff81146107515781811015610741578281836040517ffb8f41b200000000000000000000000000000000000000000000000000000000815260040161073893929190611322565b60405180910390fd5b610750848484840360006108cd565b5b50505050565b600073ffffffffffffffffffffffffffffffffffffffff168373ffffffffffffffffffffffffffffffffffffffff16036107c95760006040517f96c6fd1e0000000000000000000000000000000000000000000000000000000081526004016107c09190610ec3565b60405180910390fd5b600073ffffffffffffffffffffffffffffffffffffffff168273ffffffffffffffffffffffffffffffffffffffff160361083b5760006040517fec442f050000000000000000000000000000000000000000000000000000000081526004016108329190610ec3565b60405180910390fd5b610846838383610aa4565b505050565b600073ffffffffffffffffffffffffffffffffffffffff168273ffffffffffffffffffffffffffffffffffffffff16036108bd5760006040517fec442f050000000000000000000000000000000000000000000000000000000081526004016108b49190610ec3565b60405180910390fd5b6108c960008383610aa4565b5050565b600073ffffffffffffffffffffffffffffffffffffffff168473ffffffffffffffffffffffffffffffffffffffff160361093f5760006040517fe602df050000000000000000000000000000000000000000000000000000000081526004016109369190610ec3565b60405180910390fd5b600073ffffffffffffffffffffffffffffffffffffffff168373ffffffffffffffffffffffffffffffffffffffff16036109b15760006040517f94280d620000000000000000000000000000000000000000000000000000000081526004016109a89190610ec3565b60405180910390fd5b81600160008673ffffffffffffffffffffffffffffffffffffffff1673ffffffffffffffffffffffffffffffffffffffff16815260200190815260200160002060008573ffffffffffffffffffffffffffffffffffffffff1673ffffffffffffffffffffffffffffffffffffffff168152602001908152602001600020819055508015610a9e578273ffffffffffffffffffffffffffffffffffffffff168473ffffffffffffffffffffffffffffffffffffffff167f8c5be1e5ebec7d5bd14f71427d1e84f3dd0314c0f7b2291e5b200ac8c7c3b92584604051610a959190610e99565b60405180910390a35b50505050565b600073ffffffffffffffffffffffffffffffffffffffff168373ffffffffffffffffffffffffffffffffffffffff1603610af6578060026000828254610aea9190611359565b92505081905550610bc9565b60008060008573ffffffffffffffffffffffffffffffffffffffff1673ffffffffffffffffffffffffffffffffffffffff16815260200190815260200160002054905081811015610b82578381836040517fe450d38c000000000000000000000000000000000000000000000000000000008152600401610b7993929190611322565b60405180910390fd5b8181036000808673ffffffffffffffffffffffffffffffffffffffff1673ffffffffffffffffffffffffffffffffffffffff16815260200190815260200160002081905550505b600073ffffffffffffffffffffffffffffffffffffffff168273ffffffffffffffffffffffffffffffffffffffff1603610c125780600260008282540392505081905550610c5f565b806000808473ffffffffffffffffffffffffffffffffffffffff1673ffffffffffffffffffffffffffffffffffffffff168152602001908152602001600020600082825401925050819055505b8173ffffffffffffffffffffffffffffffffffffffff168373ffffffffffffffffffffffffffffffffffffffff167fddf252ad1be2c89b69c2b068fc378daa952ba7f163c4a11628f55a4df523b3ef83604051610cbc9190610e99565b60405180910390a3505050565b600081519050919050565b600082825260208201905092915050565b60005b83811015610d03578082015181840152602081019050610ce8565b60008484015250505050565b6000601f19601f8301169050919050565b6000610d2b82610cc9565b610d358185610cd4565b9350610d45818560208601610ce5565b610d4e81610d0f565b840191505092915050565b60006020820190508181036000830152610d738184610d20565b905092915050565b600080fd5b600073ffffffffffffffffffffffffffffffffffffffff82169050919050565b6000610dab82610d80565b9050919050565b610dbb81610da0565b8114610dc657600080fd5b50565b600081359050610dd881610db2565b92915050565b6000819050919050565b610df181610dde565b8114610dfc57600080fd5b50565b600081359050610e0e81610de8565b92915050565b60008060408385031215610e2b57610e2a610d7b565b5b6000610e3985828601610dc9565b9250506020610e4a85828601610dff565b9150509250929050565b60008115159050919050565b610e6981610e54565b82525050565b6000602082019050610e846000830184610e60565b92915050565b610e9381610dde565b82525050565b6000602082019050610eae6000830184610e8a565b92915050565b610ebd81610da0565b82525050565b6000602082019050610ed86000830184610eb4565b92915050565b600080600060608486031215610ef757610ef6610d7b565b5b6000610f0586828701610dc9565b9350506020610f1686828701610dc9565b9250506040610f2786828701610dff565b9150509250925092565b600060ff82169050919050565b610f4781610f31565b82525050565b6000602082019050610f626000830184610f3e565b92915050565b600060208284031215610f7e57610f7d610d7b565b5b6000610f8c84828501610dc9565b91505092915050565b60008060408385031215610fac57610fab610d7b565b5b6000610fba85828601610dc9565b9250506020610fcb85828601610dc9565b9150509250929050565b7f4e487b7100000000000000000000000000000000000000000000000000000000600052602260045260246000fd5b6000600282049050600182168061101c57607f821691505b60208210810361102f5761102e610fd5565b5b50919050565b7f4e6f7420617574686f72697a6564000000000000000000000000000000000000600082015250565b600061106b600e83610cd4565b915061107682611035565b602082019050919050565b6000602082019050818103600083015261109a8161105e565b9050919050565b7f4e487b7100000000000000000000000000000000000000000000000000000000600052601160045260246000fd5b60008160011c9050919050565b6000808291508390505b600185111561112757808604811115611103576111026110a1565b5b60018516156111125780820291505b8081029050611120856110d0565b94506110e7565b94509492505050565b60008261114057600190506111fc565b8161114e57600090506111fc565b8160018114611164576002811461116e5761119d565b60019150506111fc565b60ff8411156111805761117f6110a1565b5b8360020a915084821115611197576111966110a1565b5b506111fc565b5060208310610133831016604e8410600b84101617156111d25782820a9050838111156111cd576111cc6110a1565b5b6111fc565b6111df84848460016110dd565b925090508184048111156111f6576111f56110a1565b5b81810290505b9392505050565b600061120e82610dde565b915061121983610f31565b92506112467fffffffffffffffffffffffffffffffffffffffffffffffffffffffffffffffff8484611130565b905092915050565b600061125982610dde565b915061126483610dde565b925082820261127281610dde565b91508282048414831517611289576112886110a1565b5b5092915050565b7f526567697374726174696f6e20436f6e747261637420616c726561647920736560008201527f7400000000000000000000000000000000000000000000000000000000000000602082015250565b60006112ec602183610cd4565b91506112f782611290565b604082019050919050565b6000602082019050818103600083015261131b816112df565b9050919050565b60006060820190506113376000830186610eb4565b6113446020830185610e8a565b6113516040830184610e8a565b949350505050565b600061136482610dde565b915061136f83610dde565b9250828201905080821115611387576113866110a1565b5b9291505056fea264697066735822122020e7df66d6040ef977226134a774490eee9abcb752862630bfb74dfa883db9d864736f6c63430008140033",
  "linkReferences": {},
  "deployedLinkReferences": {}
}