{
  "_format": "hh-sol-artifact-1",
  "contractName": "Vote",
  "sourceName": "contracts/vote.sol",
  "abi": [
    {
      "inputs": [
        {
          "internalType": "bytes32[]",
          "name": "proposalNames",
          "type": "bytes32[]"
        },
        {
          "internalType": "address",
          "name": "tokenAddress",
          "type": "address"
        }
      ],
      "stateMutability": "nonpayable",
      "type": "constructor"
    },
    {
      "anonymous": false,
      "inputs": [
        {
          "indexed": true,
          "internalType": "address",
          "name": "sender",
          "type": "address"
        }
      ],
      "name": "Registered",
      "type": "event"
    },
    {
      "anonymous": false,
      "inputs": [
        {
          "indexed": true,
          "internalType": "address",
          "name": "reciever",
          "type": "address"
        }
      ],
      "name": "TokenSent",
      "type": "event"
    },
    {
      "inputs": [
        {
          "internalType": "uint256",
          "name": "",
          "type": "uint256"
        }
      ],
      "name": "encryptedVotes",
      "outputs": [
        {
          "internalType": "string",
          "name": "",
          "type": "string"
        }
      ],
      "stateMutability": "view",
      "type": "function"
    },
    {
      "inputs": [],
      "name": "getAllEncryptedVotes",
      "outputs": [
        {
          "internalType": "string[]",
          "name": "",
          "type": "string[]"
        }
      ],
      "stateMutability": "view",
      "type": "function"
    },
    {
      "inputs": [],
      "name": "getAllProposals",
      "outputs": [
        {
          "components": [
            {
              "internalType": "bytes32",
              "name": "name",
              "type": "bytes32"
            },
            {
              "internalType": "uint256",
              "name": "count",
              "type": "uint256"
            }
          ],
          "internalType": "struct Vote.Proposal[]",
          "name": "",
          "type": "tuple[]"
        }
      ],
      "stateMutability": "view",
      "type": "function"
    },
    {
      "inputs": [
        {
          "internalType": "address",
          "name": "_address",
          "type": "address"
        }
      ],
      "name": "hasRegistered",
      "outputs": [
        {
          "internalType": "bool",
          "name": "",
          "type": "bool"
        }
      ],
      "stateMutability": "view",
      "type": "function"
    },
    {
      "inputs": [
        {
          "internalType": "uint256",
          "name": "",
          "type": "uint256"
        }
      ],
      "name": "proposals",
      "outputs": [
        {
          "internalType": "bytes32",
          "name": "name",
          "type": "bytes32"
        },
        {
          "internalType": "uint256",
          "name": "count",
          "type": "uint256"
        }
      ],
      "stateMutability": "view",
      "type": "function"
    },
    {
      "inputs": [],
      "name": "register",
      "outputs": [],
      "stateMutability": "payable",
      "type": "function"
    },
    {
      "inputs": [
        {
          "internalType": "address",
          "name": "",
          "type": "address"
        }
      ],
      "name": "registered",
      "outputs": [
        {
          "internalType": "bool",
          "name": "",
          "type": "bool"
        }
      ],
      "stateMutability": "view",
      "type": "function"
    },
    {
      "inputs": [],
      "name": "token",
      "outputs": [
        {
          "internalType": "contract IVoteToken",
          "name": "",
          "type": "address"
        }
      ],
      "stateMutability": "view",
      "type": "function"
    },
    {
      "inputs": [
        {
          "internalType": "string",
          "name": "encryptedVote",
          "type": "string"
        }
      ],
      "name": "vote",
      "outputs": [],
      "stateMutability": "nonpayable",
      "type": "function"
    },
    {
      "inputs": [
        {
          "internalType": "address",
          "name": "",
          "type": "address"
        }
      ],
      "name": "voters",
      "outputs": [
        {
          "internalType": "bool",
          "name": "voted",
          "type": "bool"
        },
        {
          "internalType": "uint256",
          "name": "vote",
          "type": "uint256"
        }
      ],
      "stateMutability": "view",
      "type": "function"
    },
    {
      "inputs": [],
      "name": "winningProposal",
      "outputs": [
        {
          "internalType": "bytes32",
          "name": "",
          "type": "bytes32"
        }
      ],
      "stateMutability": "view",
      "type": "function"
    }
  ],
  "bytecode": "0x60806040523480156200001157600080fd5b5060405162001ba138038062001ba1833981810160405281019062000037919062000341565b60005b8251811015620000ce5760026040518060400160405280858481518110620000675762000066620003a7565b5b6020026020010151815260200160008152509080600181540180825580915050600190039060005260206000209060020201600090919091909150600082015181600001556020820151816001015550508080620000c5906200040f565b9150506200003a565b5080600360006101000a81548173ffffffffffffffffffffffffffffffffffffffff021916908373ffffffffffffffffffffffffffffffffffffffff16021790555050506200045c565b6000604051905090565b600080fd5b600080fd5b600080fd5b6000601f19601f8301169050919050565b7f4e487b7100000000000000000000000000000000000000000000000000000000600052604160045260246000fd5b6200017c8262000131565b810181811067ffffffffffffffff821117156200019e576200019d62000142565b5b80604052505050565b6000620001b362000118565b9050620001c1828262000171565b919050565b600067ffffffffffffffff821115620001e457620001e362000142565b5b602082029050602081019050919050565b600080fd5b6000819050919050565b6200020f81620001fa565b81146200021b57600080fd5b50565b6000815190506200022f8162000204565b92915050565b60006200024c6200024684620001c6565b620001a7565b90508083825260208201905060208402830185811115620002725762000271620001f5565b5b835b818110156200029f57806200028a88826200021e565b84526020840193505060208101905062000274565b5050509392505050565b600082601f830112620002c157620002c06200012c565b5b8151620002d384826020860162000235565b91505092915050565b600073ffffffffffffffffffffffffffffffffffffffff82169050919050565b60006200030982620002dc565b9050919050565b6200031b81620002fc565b81146200032757600080fd5b50565b6000815190506200033b8162000310565b92915050565b600080604083850312156200035b576200035a62000122565b5b600083015167ffffffffffffffff8111156200037c576200037b62000127565b5b6200038a85828601620002a9565b92505060206200039d858286016200032a565b9150509250929050565b7f4e487b7100000000000000000000000000000000000000000000000000000000600052603260045260246000fd5b7f4e487b7100000000000000000000000000000000000000000000000000000000600052601160045260246000fd5b6000819050919050565b60006200041c8262000405565b91507fffffffffffffffffffffffffffffffffffffffffffffffffffffffffffffffff8203620004515762000450620003d6565b5b600182019050919050565b611735806200046c6000396000f3fe60806040526004361061009c5760003560e01c8063a3ec138d11610064578063a3ec138d1461017c578063b2dd5c07146101ba578063cceb68f5146101f7578063fc0c546a14610222578063fc36e15b1461024d578063fde315bd146102765761009c565b8063013cf08b146100a1578063199541e9146100df5780631aa3a0081461010a578063609ff1bd14610114578063a0d035261461013f575b600080fd5b3480156100ad57600080fd5b506100c860048036038101906100c39190610ab1565b6102b3565b6040516100d6929190610b06565b60405180910390f35b3480156100eb57600080fd5b506100f46102e7565b6040516101019190610c81565b60405180910390f35b6101126103c0565b005b34801561012057600080fd5b506101296105b9565b6040516101369190610ca3565b60405180910390f35b34801561014b57600080fd5b5061016660048036038101906101619190610d1c565b6106af565b6040516101739190610d64565b60405180910390f35b34801561018857600080fd5b506101a3600480360381019061019e9190610d1c565b610705565b6040516101b1929190610d7f565b60405180910390f35b3480156101c657600080fd5b506101e160048036038101906101dc9190610d1c565b610736565b6040516101ee9190610d64565b60405180910390f35b34801561020357600080fd5b5061020c610756565b6040516102199190610ea4565b60405180910390f35b34801561022e57600080fd5b506102376107c9565b6040516102449190610f25565b60405180910390f35b34801561025957600080fd5b50610274600480360381019061026f9190611075565b6107ef565b005b34801561028257600080fd5b5061029d60048036038101906102989190610ab1565b6109bb565b6040516102aa9190611108565b60405180910390f35b600281815481106102c357600080fd5b90600052602060002090600202016000915090508060000154908060010154905082565b60606004805480602002602001604051908101604052809291908181526020016000905b828210156103b757838290600052602060002001805461032a90611159565b80601f016020809104026020016040519081016040528092919081815260200182805461035690611159565b80156103a35780601f10610378576101008083540402835291602001916103a3565b820191906000526020600020905b81548152906001019060200180831161038657829003601f168201915b50505050508152602001906001019061030b565b50505050905090565b600160003373ffffffffffffffffffffffffffffffffffffffff1673ffffffffffffffffffffffffffffffffffffffff16815260200190815260200160002060009054906101000a900460ff161561044d576040517f08c379a0000000000000000000000000000000000000000000000000000000008152600401610444906111d6565b60405180910390fd5b60018060003373ffffffffffffffffffffffffffffffffffffffff1673ffffffffffffffffffffffffffffffffffffffff16815260200190815260200160002060006101000a81548160ff0219169083151502179055503373ffffffffffffffffffffffffffffffffffffffff167f2d3734a8e47ac8316e500ac231c90a6e1848ca2285f40d07eaa52005e4b3a0e960405160405180910390a2600360009054906101000a900473ffffffffffffffffffffffffffffffffffffffff1673ffffffffffffffffffffffffffffffffffffffff166363250887336040518263ffffffff1660e01b81526004016105429190611205565b600060405180830381600087803b15801561055c57600080fd5b505af1158015610570573d6000803e3d6000fd5b505050503373ffffffffffffffffffffffffffffffffffffffff167fc78b20ab7c05b42365060def6fcb1eee8f4003cc6bd2830d3e6a5ee6266bde7860405160405180910390a2565b60008060028054905011610602576040517f08c379a00000000000000000000000000000000000000000000000000000000081526004016105f990611292565b60405180910390fd5b60008060005b60028054905081101561068157826002828154811061062a576106296112b2565b5b906000526020600020906002020160010154111561066e5760028181548110610656576106556112b2565b5b90600052602060002090600202016001015492508091505b808061067990611310565b915050610608565b5060028181548110610696576106956112b2565b5b9060005260206000209060020201600001549250505090565b6000600160008373ffffffffffffffffffffffffffffffffffffffff1673ffffffffffffffffffffffffffffffffffffffff16815260200190815260200160002060009054906101000a900460ff169050919050565b60006020528060005260406000206000915090508060000160009054906101000a900460ff16908060010154905082565b60016020528060005260406000206000915054906101000a900460ff1681565b60606002805480602002602001604051908101604052809291908181526020016000905b828210156107c05783829060005260206000209060020201604051806040016040529081600082015481526020016001820154815250508152602001906001019061077a565b50505050905090565b600360009054906101000a900473ffffffffffffffffffffffffffffffffffffffff1681565b60008060003373ffffffffffffffffffffffffffffffffffffffff1673ffffffffffffffffffffffffffffffffffffffff16815260200190815260200160002090508060000160009054906101000a900460ff1615610883576040517f08c379a000000000000000000000000000000000000000000000000000000000815260040161087a906113a4565b60405180910390fd5b600060048054905090506004839080600181540180825580915050600190039060005260206000200160009091909190915090816108c19190611566565b506001816108cf9190611638565b600480549050146108e3576108e261166c565b5b60018260000160006101000a81548160ff021916908315150217905550600115158260000160009054906101000a900460ff161515146109265761092561166c565b5b600360009054906101000a900473ffffffffffffffffffffffffffffffffffffffff1673ffffffffffffffffffffffffffffffffffffffff166379cc67903360016040518363ffffffff1660e01b81526004016109849291906116d6565b600060405180830381600087803b15801561099e57600080fd5b505af11580156109b2573d6000803e3d6000fd5b50505050505050565b600481815481106109cb57600080fd5b9060005260206000200160009150905080546109e690611159565b80601f0160208091040260200160405190810160405280929190818152602001828054610a1290611159565b8015610a5f5780601f10610a3457610100808354040283529160200191610a5f565b820191906000526020600020905b815481529060010190602001808311610a4257829003601f168201915b505050505081565b6000604051905090565b600080fd5b600080fd5b6000819050919050565b610a8e81610a7b565b8114610a9957600080fd5b50565b600081359050610aab81610a85565b92915050565b600060208284031215610ac757610ac6610a71565b5b6000610ad584828501610a9c565b91505092915050565b6000819050919050565b610af181610ade565b82525050565b610b0081610a7b565b82525050565b6000604082019050610b1b6000830185610ae8565b610b286020830184610af7565b9392505050565b600081519050919050565b600082825260208201905092915050565b6000819050602082019050919050565b600081519050919050565b600082825260208201905092915050565b60005b83811015610b95578082015181840152602081019050610b7a565b60008484015250505050565b6000601f19601f8301169050919050565b6000610bbd82610b5b565b610bc78185610b66565b9350610bd7818560208601610b77565b610be081610ba1565b840191505092915050565b6000610bf78383610bb2565b905092915050565b6000602082019050919050565b6000610c1782610b2f565b610c218185610b3a565b935083602082028501610c3385610b4b565b8060005b85811015610c6f5784840389528151610c508582610beb565b9450610c5b83610bff565b925060208a01995050600181019050610c37565b50829750879550505050505092915050565b60006020820190508181036000830152610c9b8184610c0c565b905092915050565b6000602082019050610cb86000830184610ae8565b92915050565b600073ffffffffffffffffffffffffffffffffffffffff82169050919050565b6000610ce982610cbe565b9050919050565b610cf981610cde565b8114610d0457600080fd5b50565b600081359050610d1681610cf0565b92915050565b600060208284031215610d3257610d31610a71565b5b6000610d4084828501610d07565b91505092915050565b60008115159050919050565b610d5e81610d49565b82525050565b6000602082019050610d796000830184610d55565b92915050565b6000604082019050610d946000830185610d55565b610da16020830184610af7565b9392505050565b600081519050919050565b600082825260208201905092915050565b6000819050602082019050919050565b610ddd81610ade565b82525050565b610dec81610a7b565b82525050565b604082016000820151610e086000850182610dd4565b506020820151610e1b6020850182610de3565b50505050565b6000610e2d8383610df2565b60408301905092915050565b6000602082019050919050565b6000610e5182610da8565b610e5b8185610db3565b9350610e6683610dc4565b8060005b83811015610e97578151610e7e8882610e21565b9750610e8983610e39565b925050600181019050610e6a565b5085935050505092915050565b60006020820190508181036000830152610ebe8184610e46565b905092915050565b6000819050919050565b6000610eeb610ee6610ee184610cbe565b610ec6565b610cbe565b9050919050565b6000610efd82610ed0565b9050919050565b6000610f0f82610ef2565b9050919050565b610f1f81610f04565b82525050565b6000602082019050610f3a6000830184610f16565b92915050565b600080fd5b600080fd5b7f4e487b7100000000000000000000000000000000000000000000000000000000600052604160045260246000fd5b610f8282610ba1565b810181811067ffffffffffffffff82111715610fa157610fa0610f4a565b5b80604052505050565b6000610fb4610a67565b9050610fc08282610f79565b919050565b600067ffffffffffffffff821115610fe057610fdf610f4a565b5b610fe982610ba1565b9050602081019050919050565b82818337600083830152505050565b600061101861101384610fc5565b610faa565b90508281526020810184848401111561103457611033610f45565b5b61103f848285610ff6565b509392505050565b600082601f83011261105c5761105b610f40565b5b813561106c848260208601611005565b91505092915050565b60006020828403121561108b5761108a610a71565b5b600082013567ffffffffffffffff8111156110a9576110a8610a76565b5b6110b584828501611047565b91505092915050565b600082825260208201905092915050565b60006110da82610b5b565b6110e481856110be565b93506110f4818560208601610b77565b6110fd81610ba1565b840191505092915050565b6000602082019050818103600083015261112281846110cf565b905092915050565b7f4e487b7100000000000000000000000000000000000000000000000000000000600052602260045260246000fd5b6000600282049050600182168061117157607f821691505b6020821081036111845761118361112a565b5b50919050565b7f5573657220616c72656164792072656769737465726564000000000000000000600082015250565b60006111c06017836110be565b91506111cb8261118a565b602082019050919050565b600060208201905081810360008301526111ef816111b3565b9050919050565b6111ff81610cde565b82525050565b600060208201905061121a60008301846111f6565b92915050565b7f546865726520617265206e6f2070726f706f73616c7320696e2074686520636f60008201527f6e74726163742e00000000000000000000000000000000000000000000000000602082015250565b600061127c6027836110be565b915061128782611220565b604082019050919050565b600060208201905081810360008301526112ab8161126f565b9050919050565b7f4e487b7100000000000000000000000000000000000000000000000000000000600052603260045260246000fd5b7f4e487b7100000000000000000000000000000000000000000000000000000000600052601160045260246000fd5b600061131b82610a7b565b91507fffffffffffffffffffffffffffffffffffffffffffffffffffffffffffffffff820361134d5761134c6112e1565b5b600182019050919050565b7f557365722068617320766f74656420616c72656164792e000000000000000000600082015250565b600061138e6017836110be565b915061139982611358565b602082019050919050565b600060208201905081810360008301526113bd81611381565b9050919050565b60008190508160005260206000209050919050565b60006020601f8301049050919050565b600082821b905092915050565b6000600883026114267fffffffffffffffffffffffffffffffffffffffffffffffffffffffffffffffff826113e9565b61143086836113e9565b95508019841693508086168417925050509392505050565b600061146361145e61145984610a7b565b610ec6565b610a7b565b9050919050565b6000819050919050565b61147d83611448565b6114916114898261146a565b8484546113f6565b825550505050565b600090565b6114a6611499565b6114b1818484611474565b505050565b5b818110156114d5576114ca60008261149e565b6001810190506114b7565b5050565b601f82111561151a576114eb816113c4565b6114f4846113d9565b81016020851015611503578190505b61151761150f856113d9565b8301826114b6565b50505b505050565b600082821c905092915050565b600061153d6000198460080261151f565b1980831691505092915050565b6000611556838361152c565b9150826002028217905092915050565b61156f82610b5b565b67ffffffffffffffff81111561158857611587610f4a565b5b6115928254611159565b61159d8282856114d9565b600060209050601f8311600181146115d057600084156115be578287015190505b6115c8858261154a565b865550611630565b601f1984166115de866113c4565b60005b82811015611606578489015182556001820191506020850194506020810190506115e1565b86831015611623578489015161161f601f89168261152c565b8355505b6001600288020188555050505b505050505050565b600061164382610a7b565b915061164e83610a7b565b9250828201905080821115611666576116656112e1565b5b92915050565b7f4e487b7100000000000000000000000000000000000000000000000000000000600052600160045260246000fd5b6000819050919050565b60006116c06116bb6116b68461169b565b610ec6565b610a7b565b9050919050565b6116d0816116a5565b82525050565b60006040820190506116eb60008301856111f6565b6116f860208301846116c7565b939250505056fea264697066735822122017e3d139c6d0a0a92f398c949ca9ebae0ee9a346cbd8f62ff9158b2eea965f2364736f6c63430008140033",
  "linkReferences": {},
  "deployedLinkReferences": {}
}