{
  "_format": "hh-sol-artifact-1",
  "contractName": "Vote",
  "sourceName": "contracts/vote.sol",
  "abi": [
    {
      "inputs": [
        {
          "internalType": "bytes32[]",
          "name": "proposalNames",
          "type": "bytes32[]"
        },
        {
          "internalType": "address",
          "name": "tokenAddress",
          "type": "address"
        }
      ],
      "stateMutability": "nonpayable",
      "type": "constructor"
    },
    {
      "anonymous": false,
      "inputs": [
        {
          "indexed": true,
          "internalType": "address",
          "name": "sender",
          "type": "address"
        }
      ],
      "name": "Registered",
      "type": "event"
    },
    {
      "anonymous": false,
      "inputs": [
        {
          "indexed": true,
          "internalType": "address",
          "name": "reciever",
          "type": "address"
        }
      ],
      "name": "TokenSent",
      "type": "event"
    },
    {
      "inputs": [
        {
          "internalType": "uint256",
          "name": "",
          "type": "uint256"
        }
      ],
      "name": "encryptedVotes",
      "outputs": [
        {
          "internalType": "string",
          "name": "",
          "type": "string"
        }
      ],
      "stateMutability": "view",
      "type": "function"
    },
    {
      "inputs": [],
      "name": "getAllEncryptedVotes",
      "outputs": [
        {
          "internalType": "string[]",
          "name": "",
          "type": "string[]"
        }
      ],
      "stateMutability": "view",
      "type": "function"
    },
    {
      "inputs": [],
      "name": "getAllProposals",
      "outputs": [
        {
          "components": [
            {
              "internalType": "bytes32",
              "name": "name",
              "type": "bytes32"
            },
            {
              "internalType": "uint256",
              "name": "count",
              "type": "uint256"
            }
          ],
          "internalType": "struct Vote.Proposal[]",
          "name": "",
          "type": "tuple[]"
        }
      ],
      "stateMutability": "view",
      "type": "function"
    },
    {
      "inputs": [
        {
          "internalType": "address",
          "name": "_address",
          "type": "address"
        }
      ],
      "name": "hasRegistered",
      "outputs": [
        {
          "internalType": "bool",
          "name": "",
          "type": "bool"
        }
      ],
      "stateMutability": "view",
      "type": "function"
    },
    {
      "inputs": [
        {
          "internalType": "uint256",
          "name": "",
          "type": "uint256"
        }
      ],
      "name": "proposals",
      "outputs": [
        {
          "internalType": "bytes32",
          "name": "name",
          "type": "bytes32"
        },
        {
          "internalType": "uint256",
          "name": "count",
          "type": "uint256"
        }
      ],
      "stateMutability": "view",
      "type": "function"
    },
    {
      "inputs": [],
      "name": "register",
      "outputs": [],
      "stateMutability": "payable",
      "type": "function"
    },
    {
      "inputs": [
        {
          "internalType": "address",
          "name": "",
          "type": "address"
        }
      ],
      "name": "registered",
      "outputs": [
        {
          "internalType": "bool",
          "name": "",
          "type": "bool"
        }
      ],
      "stateMutability": "view",
      "type": "function"
    },
    {
      "inputs": [],
      "name": "token",
      "outputs": [
        {
          "internalType": "contract IVoteToken",
          "name": "",
          "type": "address"
        }
      ],
      "stateMutability": "view",
      "type": "function"
    },
    {
      "inputs": [
        {
          "internalType": "string",
          "name": "encryptedVote",
          "type": "string"
        }
      ],
      "name": "vote",
      "outputs": [],
      "stateMutability": "nonpayable",
      "type": "function"
    },
    {
      "inputs": [
        {
          "internalType": "address",
          "name": "",
          "type": "address"
        }
      ],
      "name": "voters",
      "outputs": [
        {
          "internalType": "bool",
          "name": "voted",
          "type": "bool"
        },
        {
          "internalType": "uint256",
          "name": "vote",
          "type": "uint256"
        }
      ],
      "stateMutability": "view",
      "type": "function"
    },
    {
      "inputs": [],
      "name": "winningProposal",
      "outputs": [
        {
          "internalType": "bytes32",
          "name": "",
          "type": "bytes32"
        }
      ],
      "stateMutability": "view",
      "type": "function"
    }
  ],
  "bytecode": "0x60806040523480156200001157600080fd5b5060405162001e0238038062001e02833981810160405281019062000037919062000341565b60005b8251811015620000ce5760026040518060400160405280858481518110620000675762000066620003a7565b5b6020026020010151815260200160008152509080600181540180825580915050600190039060005260206000209060020201600090919091909150600082015181600001556020820151816001015550508080620000c5906200040f565b9150506200003a565b5080600360006101000a81548173ffffffffffffffffffffffffffffffffffffffff021916908373ffffffffffffffffffffffffffffffffffffffff16021790555050506200045c565b6000604051905090565b600080fd5b600080fd5b600080fd5b6000601f19601f8301169050919050565b7f4e487b7100000000000000000000000000000000000000000000000000000000600052604160045260246000fd5b6200017c8262000131565b810181811067ffffffffffffffff821117156200019e576200019d62000142565b5b80604052505050565b6000620001b362000118565b9050620001c1828262000171565b919050565b600067ffffffffffffffff821115620001e457620001e362000142565b5b602082029050602081019050919050565b600080fd5b6000819050919050565b6200020f81620001fa565b81146200021b57600080fd5b50565b6000815190506200022f8162000204565b92915050565b60006200024c6200024684620001c6565b620001a7565b90508083825260208201905060208402830185811115620002725762000271620001f5565b5b835b818110156200029f57806200028a88826200021e565b84526020840193505060208101905062000274565b5050509392505050565b600082601f830112620002c157620002c06200012c565b5b8151620002d384826020860162000235565b91505092915050565b600073ffffffffffffffffffffffffffffffffffffffff82169050919050565b60006200030982620002dc565b9050919050565b6200031b81620002fc565b81146200032757600080fd5b50565b6000815190506200033b8162000310565b92915050565b600080604083850312156200035b576200035a62000122565b5b600083015167ffffffffffffffff8111156200037c576200037b62000127565b5b6200038a85828601620002a9565b92505060206200039d858286016200032a565b9150509250929050565b7f4e487b7100000000000000000000000000000000000000000000000000000000600052603260045260246000fd5b7f4e487b7100000000000000000000000000000000000000000000000000000000600052601160045260246000fd5b6000819050919050565b60006200041c8262000405565b91507fffffffffffffffffffffffffffffffffffffffffffffffffffffffffffffffff8203620004515762000450620003d6565b5b600182019050919050565b611996806200046c6000396000f3fe60806040526004361061009c5760003560e01c8063a3ec138d11610064578063a3ec138d1461017c578063b2dd5c07146101ba578063cceb68f5146101f7578063fc0c546a14610222578063fc36e15b1461024d578063fde315bd146102765761009c565b8063013cf08b146100a1578063199541e9146100df5780631aa3a0081461010a578063609ff1bd14610114578063a0d035261461013f575b600080fd5b3480156100ad57600080fd5b506100c860048036038101906100c39190610cd5565b6102b3565b6040516100d6929190610d2a565b60405180910390f35b3480156100eb57600080fd5b506100f46102e7565b6040516101019190610ea5565b60405180910390f35b6101126103c0565b005b34801561012057600080fd5b506101296106b3565b6040516101369190610ec7565b60405180910390f35b34801561014b57600080fd5b5061016660048036038101906101619190610f40565b610765565b6040516101739190610f88565b60405180910390f35b34801561018857600080fd5b506101a3600480360381019061019e9190610f40565b6107bb565b6040516101b1929190610fa3565b60405180910390f35b3480156101c657600080fd5b506101e160048036038101906101dc9190610f40565b6107ec565b6040516101ee9190610f88565b60405180910390f35b34801561020357600080fd5b5061020c61080c565b60405161021991906110c8565b60405180910390f35b34801561022e57600080fd5b5061023761087f565b6040516102449190611149565b60405180910390f35b34801561025957600080fd5b50610274600480360381019061026f9190611299565b6108a5565b005b34801561028257600080fd5b5061029d60048036038101906102989190610cd5565b610a5a565b6040516102aa919061132c565b60405180910390f35b600281815481106102c357600080fd5b90600052602060002090600202016000915090508060000154908060010154905082565b60606004805480602002602001604051908101604052809291908181526020016000905b828210156103b757838290600052602060002001805461032a9061137d565b80601f01602080910402602001604051908101604052809291908181526020018280546103569061137d565b80156103a35780601f10610378576101008083540402835291602001916103a3565b820191906000526020600020905b81548152906001019060200180831161038657829003601f168201915b50505050508152602001906001019061030b565b50505050905090565b6103ff6040518060400160405280600c81526020017f5265676973746572696e673a000000000000000000000000000000000000000081525033610b06565b600160003373ffffffffffffffffffffffffffffffffffffffff1673ffffffffffffffffffffffffffffffffffffffff16815260200190815260200160002060009054906101000a900460ff161561048c576040517f08c379a0000000000000000000000000000000000000000000000000000000008152600401610483906113fa565b60405180910390fd5b60018060003373ffffffffffffffffffffffffffffffffffffffff1673ffffffffffffffffffffffffffffffffffffffff16815260200190815260200160002060006101000a81548160ff0219169083151502179055506105226040518060400160405280601681526020017f526567697374726174696f6e20636f6d706c6574653a0000000000000000000081525033610b06565b3373ffffffffffffffffffffffffffffffffffffffff167f2d3734a8e47ac8316e500ac231c90a6e1848ca2285f40d07eaa52005e4b3a0e960405160405180910390a2600360009054906101000a900473ffffffffffffffffffffffffffffffffffffffff1673ffffffffffffffffffffffffffffffffffffffff166363250887336040518263ffffffff1660e01b81526004016105c09190611429565b600060405180830381600087803b1580156105da57600080fd5b505af11580156105ee573d6000803e3d6000fd5b505050506106306040518060400160405280600c81526020017f546f6b656e204d696e7465640000000000000000000000000000000000000000815250610ba2565b3373ffffffffffffffffffffffffffffffffffffffff167fc78b20ab7c05b42365060def6fcb1eee8f4003cc6bd2830d3e6a5ee6266bde7860405160405180910390a26106b16040518060400160405280600d81526020017f4576656e7420456d697474656400000000000000000000000000000000000000815250610ba2565b565b600080600090506000805b6002805490508110156107375782600282815481106106e0576106df611444565b5b9060005260206000209060020201600101541115610724576002818154811061070c5761070b611444565b5b90600052602060002090600202016001015492508091505b808061072f906114a2565b9150506106be565b506002818154811061074c5761074b611444565b5b9060005260206000209060020201600001549250505090565b6000600160008373ffffffffffffffffffffffffffffffffffffffff1673ffffffffffffffffffffffffffffffffffffffff16815260200190815260200160002060009054906101000a900460ff169050919050565b60006020528060005260406000206000915090508060000160009054906101000a900460ff16908060010154905082565b60016020528060005260406000206000915054906101000a900460ff1681565b60606002805480602002602001604051908101604052809291908181526020016000905b8282101561087657838290600052602060002090600202016040518060400160405290816000820154815260200160018201548152505081526020019060010190610830565b50505050905090565b600360009054906101000a900473ffffffffffffffffffffffffffffffffffffffff1681565b60008060003373ffffffffffffffffffffffffffffffffffffffff1673ffffffffffffffffffffffffffffffffffffffff16815260200190815260200160002090508060000160009054906101000a900460ff1615610939576040517f08c379a000000000000000000000000000000000000000000000000000000000815260040161093090611536565b60405180910390fd5b60048290806001815401808255809150506001900390600052602060002001600090919091909150908161096d91906116f8565b506000600360009054906101000a900473ffffffffffffffffffffffffffffffffffffffff1673ffffffffffffffffffffffffffffffffffffffff166323b872dd333060016040518463ffffffff1660e01b81526004016109d093929190611805565b6020604051808303816000875af11580156109ef573d6000803e3d6000fd5b505050506040513d601f19601f82011682018060405250810190610a139190611868565b905080610a55576040517f08c379a0000000000000000000000000000000000000000000000000000000008152600401610a4c906118e1565b60405180910390fd5b505050565b60048181548110610a6a57600080fd5b906000526020600020016000915090508054610a859061137d565b80601f0160208091040260200160405190810160405280929190818152602001828054610ab19061137d565b8015610afe5780601f10610ad357610100808354040283529160200191610afe565b820191906000526020600020905b815481529060010190602001808311610ae157829003601f168201915b505050505081565b610b9e8282604051602401610b1c929190611901565b6040516020818303038152906040527f319af333000000000000000000000000000000000000000000000000000000007bffffffffffffffffffffffffffffffffffffffffffffffffffffffff19166020820180517bffffffffffffffffffffffffffffffffffffffffffffffffffffffff8381831617835250505050610c3b565b5050565b610c3881604051602401610bb6919061132c565b6040516020818303038152906040527f41304fac000000000000000000000000000000000000000000000000000000007bffffffffffffffffffffffffffffffffffffffffffffffffffffffff19166020820180517bffffffffffffffffffffffffffffffffffffffffffffffffffffffff8381831617835250505050610c3b565b50565b610c5281610c4a610c55610c76565b63ffffffff16565b50565b60006a636f6e736f6c652e6c6f679050600080835160208501845afa505050565b610c81819050919050565b610c89611931565b565b6000604051905090565b600080fd5b600080fd5b6000819050919050565b610cb281610c9f565b8114610cbd57600080fd5b50565b600081359050610ccf81610ca9565b92915050565b600060208284031215610ceb57610cea610c95565b5b6000610cf984828501610cc0565b91505092915050565b6000819050919050565b610d1581610d02565b82525050565b610d2481610c9f565b82525050565b6000604082019050610d3f6000830185610d0c565b610d4c6020830184610d1b565b9392505050565b600081519050919050565b600082825260208201905092915050565b6000819050602082019050919050565b600081519050919050565b600082825260208201905092915050565b60005b83811015610db9578082015181840152602081019050610d9e565b60008484015250505050565b6000601f19601f8301169050919050565b6000610de182610d7f565b610deb8185610d8a565b9350610dfb818560208601610d9b565b610e0481610dc5565b840191505092915050565b6000610e1b8383610dd6565b905092915050565b6000602082019050919050565b6000610e3b82610d53565b610e458185610d5e565b935083602082028501610e5785610d6f565b8060005b85811015610e935784840389528151610e748582610e0f565b9450610e7f83610e23565b925060208a01995050600181019050610e5b565b50829750879550505050505092915050565b60006020820190508181036000830152610ebf8184610e30565b905092915050565b6000602082019050610edc6000830184610d0c565b92915050565b600073ffffffffffffffffffffffffffffffffffffffff82169050919050565b6000610f0d82610ee2565b9050919050565b610f1d81610f02565b8114610f2857600080fd5b50565b600081359050610f3a81610f14565b92915050565b600060208284031215610f5657610f55610c95565b5b6000610f6484828501610f2b565b91505092915050565b60008115159050919050565b610f8281610f6d565b82525050565b6000602082019050610f9d6000830184610f79565b92915050565b6000604082019050610fb86000830185610f79565b610fc56020830184610d1b565b9392505050565b600081519050919050565b600082825260208201905092915050565b6000819050602082019050919050565b61100181610d02565b82525050565b61101081610c9f565b82525050565b60408201600082015161102c6000850182610ff8565b50602082015161103f6020850182611007565b50505050565b60006110518383611016565b60408301905092915050565b6000602082019050919050565b600061107582610fcc565b61107f8185610fd7565b935061108a83610fe8565b8060005b838110156110bb5781516110a28882611045565b97506110ad8361105d565b92505060018101905061108e565b5085935050505092915050565b600060208201905081810360008301526110e2818461106a565b905092915050565b6000819050919050565b600061110f61110a61110584610ee2565b6110ea565b610ee2565b9050919050565b6000611121826110f4565b9050919050565b600061113382611116565b9050919050565b61114381611128565b82525050565b600060208201905061115e600083018461113a565b92915050565b600080fd5b600080fd5b7f4e487b7100000000000000000000000000000000000000000000000000000000600052604160045260246000fd5b6111a682610dc5565b810181811067ffffffffffffffff821117156111c5576111c461116e565b5b80604052505050565b60006111d8610c8b565b90506111e4828261119d565b919050565b600067ffffffffffffffff8211156112045761120361116e565b5b61120d82610dc5565b9050602081019050919050565b82818337600083830152505050565b600061123c611237846111e9565b6111ce565b90508281526020810184848401111561125857611257611169565b5b61126384828561121a565b509392505050565b600082601f8301126112805761127f611164565b5b8135611290848260208601611229565b91505092915050565b6000602082840312156112af576112ae610c95565b5b600082013567ffffffffffffffff8111156112cd576112cc610c9a565b5b6112d98482850161126b565b91505092915050565b600082825260208201905092915050565b60006112fe82610d7f565b61130881856112e2565b9350611318818560208601610d9b565b61132181610dc5565b840191505092915050565b6000602082019050818103600083015261134681846112f3565b905092915050565b7f4e487b7100000000000000000000000000000000000000000000000000000000600052602260045260246000fd5b6000600282049050600182168061139557607f821691505b6020821081036113a8576113a761134e565b5b50919050565b7f5573657220616c72656164792072656769737465726564000000000000000000600082015250565b60006113e46017836112e2565b91506113ef826113ae565b602082019050919050565b60006020820190508181036000830152611413816113d7565b9050919050565b61142381610f02565b82525050565b600060208201905061143e600083018461141a565b92915050565b7f4e487b7100000000000000000000000000000000000000000000000000000000600052603260045260246000fd5b7f4e487b7100000000000000000000000000000000000000000000000000000000600052601160045260246000fd5b60006114ad82610c9f565b91507fffffffffffffffffffffffffffffffffffffffffffffffffffffffffffffffff82036114df576114de611473565b5b600182019050919050565b7f557365722068617320766f74656420616c72656164792e000000000000000000600082015250565b60006115206017836112e2565b915061152b826114ea565b602082019050919050565b6000602082019050818103600083015261154f81611513565b9050919050565b60008190508160005260206000209050919050565b60006020601f8301049050919050565b600082821b905092915050565b6000600883026115b87fffffffffffffffffffffffffffffffffffffffffffffffffffffffffffffffff8261157b565b6115c2868361157b565b95508019841693508086168417925050509392505050565b60006115f56115f06115eb84610c9f565b6110ea565b610c9f565b9050919050565b6000819050919050565b61160f836115da565b61162361161b826115fc565b848454611588565b825550505050565b600090565b61163861162b565b611643818484611606565b505050565b5b818110156116675761165c600082611630565b600181019050611649565b5050565b601f8211156116ac5761167d81611556565b6116868461156b565b81016020851015611695578190505b6116a96116a18561156b565b830182611648565b50505b505050565b600082821c905092915050565b60006116cf600019846008026116b1565b1980831691505092915050565b60006116e883836116be565b9150826002028217905092915050565b61170182610d7f565b67ffffffffffffffff81111561171a5761171961116e565b5b611724825461137d565b61172f82828561166b565b600060209050601f8311600181146117625760008415611750578287015190505b61175a85826116dc565b8655506117c2565b601f19841661177086611556565b60005b8281101561179857848901518255600182019150602085019450602081019050611773565b868310156117b557848901516117b1601f8916826116be565b8355505b6001600288020188555050505b505050505050565b6000819050919050565b60006117ef6117ea6117e5846117ca565b6110ea565b610c9f565b9050919050565b6117ff816117d4565b82525050565b600060608201905061181a600083018661141a565b611827602083018561141a565b61183460408301846117f6565b949350505050565b61184581610f6d565b811461185057600080fd5b50565b6000815190506118628161183c565b92915050565b60006020828403121561187e5761187d610c95565b5b600061188c84828501611853565b91505092915050565b7f5472616e73666572206661696c65640000000000000000000000000000000000600082015250565b60006118cb600f836112e2565b91506118d682611895565b602082019050919050565b600060208201905081810360008301526118fa816118be565b9050919050565b6000604082019050818103600083015261191b81856112f3565b905061192a602083018461141a565b9392505050565b7f4e487b7100000000000000000000000000000000000000000000000000000000600052605160045260246000fdfea2646970667358221220808bfcee0149ec4a9724f8c336b3c09eb452d07a06ca9084772f11b960d25e6364736f6c63430008140033",
  "linkReferences": {},
  "deployedLinkReferences": {}
}