{
  "_format": "hh-sol-artifact-1",
  "contractName": "VoteToken",
  "sourceName": "contracts/token.sol",
  "abi": [
    {
      "inputs": [
        {
          "internalType": "uint256",
          "name": "initialSupply",
          "type": "uint256"
        },
        {
          "internalType": "address",
          "name": "_registrationContract",
          "type": "address"
        }
      ],
      "stateMutability": "nonpayable",
      "type": "constructor"
    },
    {
      "inputs": [
        {
          "internalType": "address",
          "name": "spender",
          "type": "address"
        },
        {
          "internalType": "uint256",
          "name": "allowance",
          "type": "uint256"
        },
        {
          "internalType": "uint256",
          "name": "needed",
          "type": "uint256"
        }
      ],
      "name": "ERC20InsufficientAllowance",
      "type": "error"
    },
    {
      "inputs": [
        {
          "internalType": "address",
          "name": "sender",
          "type": "address"
        },
        {
          "internalType": "uint256",
          "name": "balance",
          "type": "uint256"
        },
        {
          "internalType": "uint256",
          "name": "needed",
          "type": "uint256"
        }
      ],
      "name": "ERC20InsufficientBalance",
      "type": "error"
    },
    {
      "inputs": [
        {
          "internalType": "address",
          "name": "approver",
          "type": "address"
        }
      ],
      "name": "ERC20InvalidApprover",
      "type": "error"
    },
    {
      "inputs": [
        {
          "internalType": "address",
          "name": "receiver",
          "type": "address"
        }
      ],
      "name": "ERC20InvalidReceiver",
      "type": "error"
    },
    {
      "inputs": [
        {
          "internalType": "address",
          "name": "sender",
          "type": "address"
        }
      ],
      "name": "ERC20InvalidSender",
      "type": "error"
    },
    {
      "inputs": [
        {
          "internalType": "address",
          "name": "spender",
          "type": "address"
        }
      ],
      "name": "ERC20InvalidSpender",
      "type": "error"
    },
    {
      "anonymous": false,
      "inputs": [
        {
          "indexed": true,
          "internalType": "address",
          "name": "owner",
          "type": "address"
        },
        {
          "indexed": true,
          "internalType": "address",
          "name": "spender",
          "type": "address"
        },
        {
          "indexed": false,
          "internalType": "uint256",
          "name": "value",
          "type": "uint256"
        }
      ],
      "name": "Approval",
      "type": "event"
    },
    {
      "anonymous": false,
      "inputs": [
        {
          "indexed": true,
          "internalType": "address",
          "name": "from",
          "type": "address"
        },
        {
          "indexed": true,
          "internalType": "address",
          "name": "to",
          "type": "address"
        },
        {
          "indexed": false,
          "internalType": "uint256",
          "name": "value",
          "type": "uint256"
        }
      ],
      "name": "Transfer",
      "type": "event"
    },
    {
      "inputs": [
        {
          "internalType": "address",
          "name": "owner",
          "type": "address"
        },
        {
          "internalType": "address",
          "name": "spender",
          "type": "address"
        }
      ],
      "name": "allowance",
      "outputs": [
        {
          "internalType": "uint256",
          "name": "",
          "type": "uint256"
        }
      ],
      "stateMutability": "view",
      "type": "function"
    },
    {
      "inputs": [
        {
          "internalType": "address",
          "name": "spender",
          "type": "address"
        },
        {
          "internalType": "uint256",
          "name": "value",
          "type": "uint256"
        }
      ],
      "name": "approve",
      "outputs": [
        {
          "internalType": "bool",
          "name": "",
          "type": "bool"
        }
      ],
      "stateMutability": "nonpayable",
      "type": "function"
    },
    {
      "inputs": [
        {
          "internalType": "address",
          "name": "account",
          "type": "address"
        }
      ],
      "name": "balanceOf",
      "outputs": [
        {
          "internalType": "uint256",
          "name": "",
          "type": "uint256"
        }
      ],
      "stateMutability": "view",
      "type": "function"
    },
    {
      "inputs": [
        {
          "internalType": "uint256",
          "name": "value",
          "type": "uint256"
        }
      ],
      "name": "burn",
      "outputs": [],
      "stateMutability": "nonpayable",
      "type": "function"
    },
    {
      "inputs": [
        {
          "internalType": "address",
          "name": "account",
          "type": "address"
        },
        {
          "internalType": "uint256",
          "name": "value",
          "type": "uint256"
        }
      ],
      "name": "burnFrom",
      "outputs": [],
      "stateMutability": "nonpayable",
      "type": "function"
    },
    {
      "inputs": [],
      "name": "decimals",
      "outputs": [
        {
          "internalType": "uint8",
          "name": "",
          "type": "uint8"
        }
      ],
      "stateMutability": "view",
      "type": "function"
    },
    {
      "inputs": [
        {
          "internalType": "address",
          "name": "user",
          "type": "address"
        }
      ],
      "name": "mintForUser",
      "outputs": [],
      "stateMutability": "nonpayable",
      "type": "function"
    },
    {
      "inputs": [],
      "name": "name",
      "outputs": [
        {
          "internalType": "string",
          "name": "",
          "type": "string"
        }
      ],
      "stateMutability": "view",
      "type": "function"
    },
    {
      "inputs": [],
      "name": "registrationContract",
      "outputs": [
        {
          "internalType": "address",
          "name": "",
          "type": "address"
        }
      ],
      "stateMutability": "view",
      "type": "function"
    },
    {
      "inputs": [
        {
          "internalType": "address",
          "name": "_registrationContract",
          "type": "address"
        }
      ],
      "name": "setRegistrationContract",
      "outputs": [],
      "stateMutability": "nonpayable",
      "type": "function"
    },
    {
      "inputs": [],
      "name": "symbol",
      "outputs": [
        {
          "internalType": "string",
          "name": "",
          "type": "string"
        }
      ],
      "stateMutability": "view",
      "type": "function"
    },
    {
      "inputs": [],
      "name": "totalSupply",
      "outputs": [
        {
          "internalType": "uint256",
          "name": "",
          "type": "uint256"
        }
      ],
      "stateMutability": "view",
      "type": "function"
    },
    {
      "inputs": [
        {
          "internalType": "address",
          "name": "to",
          "type": "address"
        },
        {
          "internalType": "uint256",
          "name": "value",
          "type": "uint256"
        }
      ],
      "name": "transfer",
      "outputs": [
        {
          "internalType": "bool",
          "name": "",
          "type": "bool"
        }
      ],
      "stateMutability": "nonpayable",
      "type": "function"
    },
    {
      "inputs": [
        {
          "internalType": "address",
          "name": "from",
          "type": "address"
        },
        {
          "internalType": "address",
          "name": "to",
          "type": "address"
        },
        {
          "internalType": "uint256",
          "name": "value",
          "type": "uint256"
        }
      ],
      "name": "transferFrom",
      "outputs": [
        {
          "internalType": "bool",
          "name": "",
          "type": "bool"
        }
      ],
      "stateMutability": "nonpayable",
      "type": "function"
    }
  ],
  "bytecode": "0x60806040523480156200001157600080fd5b5060405162001e4b38038062001e4b833981810160405281019062000037919062000486565b6040518060400160405280600981526020017f566f7465546f6b656e00000000000000000000000000000000000000000000008152506040518060400160405280600381526020017f56544b00000000000000000000000000000000000000000000000000000000008152508160039081620000b491906200073d565b508060049081620000c691906200073d565b505050620000db33836200012460201b60201c565b80600560006101000a81548173ffffffffffffffffffffffffffffffffffffffff021916908373ffffffffffffffffffffffffffffffffffffffff160217905550505062000927565b600073ffffffffffffffffffffffffffffffffffffffff168273ffffffffffffffffffffffffffffffffffffffff1603620001995760006040517fec442f0500000000000000000000000000000000000000000000000000000000815260040162000190919062000835565b60405180910390fd5b620001ad60008383620001b160201b60201c565b5050565b600073ffffffffffffffffffffffffffffffffffffffff168373ffffffffffffffffffffffffffffffffffffffff160362000207578060026000828254620001fa919062000881565b92505081905550620002dd565b60008060008573ffffffffffffffffffffffffffffffffffffffff1673ffffffffffffffffffffffffffffffffffffffff1681526020019081526020016000205490508181101562000296578381836040517fe450d38c0000000000000000000000000000000000000000000000000000000081526004016200028d93929190620008cd565b60405180910390fd5b8181036000808673ffffffffffffffffffffffffffffffffffffffff1673ffffffffffffffffffffffffffffffffffffffff16815260200190815260200160002081905550505b600073ffffffffffffffffffffffffffffffffffffffff168273ffffffffffffffffffffffffffffffffffffffff160362000328578060026000828254039250508190555062000375565b806000808473ffffffffffffffffffffffffffffffffffffffff1673ffffffffffffffffffffffffffffffffffffffff168152602001908152602001600020600082825401925050819055505b8173ffffffffffffffffffffffffffffffffffffffff168373ffffffffffffffffffffffffffffffffffffffff167fddf252ad1be2c89b69c2b068fc378daa952ba7f163c4a11628f55a4df523b3ef83604051620003d491906200090a565b60405180910390a3505050565b600080fd5b6000819050919050565b620003fb81620003e6565b81146200040757600080fd5b50565b6000815190506200041b81620003f0565b92915050565b600073ffffffffffffffffffffffffffffffffffffffff82169050919050565b60006200044e8262000421565b9050919050565b620004608162000441565b81146200046c57600080fd5b50565b600081519050620004808162000455565b92915050565b60008060408385031215620004a0576200049f620003e1565b5b6000620004b0858286016200040a565b9250506020620004c3858286016200046f565b9150509250929050565b600081519050919050565b7f4e487b7100000000000000000000000000000000000000000000000000000000600052604160045260246000fd5b7f4e487b7100000000000000000000000000000000000000000000000000000000600052602260045260246000fd5b600060028204905060018216806200054f57607f821691505b60208210810362000565576200056462000507565b5b50919050565b60008190508160005260206000209050919050565b60006020601f8301049050919050565b600082821b905092915050565b600060088302620005cf7fffffffffffffffffffffffffffffffffffffffffffffffffffffffffffffffff8262000590565b620005db868362000590565b95508019841693508086168417925050509392505050565b6000819050919050565b60006200061e620006186200061284620003e6565b620005f3565b620003e6565b9050919050565b6000819050919050565b6200063a83620005fd565b62000652620006498262000625565b8484546200059d565b825550505050565b600090565b620006696200065a565b620006768184846200062f565b505050565b5b818110156200069e57620006926000826200065f565b6001810190506200067c565b5050565b601f821115620006ed57620006b7816200056b565b620006c28462000580565b81016020851015620006d2578190505b620006ea620006e18562000580565b8301826200067b565b50505b505050565b600082821c905092915050565b60006200071260001984600802620006f2565b1980831691505092915050565b60006200072d8383620006ff565b9150826002028217905092915050565b6200074882620004cd565b67ffffffffffffffff811115620007645762000763620004d8565b5b62000770825462000536565b6200077d828285620006a2565b600060209050601f831160018114620007b55760008415620007a0578287015190505b620007ac85826200071f565b8655506200081c565b601f198416620007c5866200056b565b60005b82811015620007ef57848901518255600182019150602085019450602081019050620007c8565b868310156200080f57848901516200080b601f891682620006ff565b8355505b6001600288020188555050505b505050505050565b6200082f8162000441565b82525050565b60006020820190506200084c600083018462000824565b92915050565b7f4e487b7100000000000000000000000000000000000000000000000000000000600052601160045260246000fd5b60006200088e82620003e6565b91506200089b83620003e6565b9250828201905080821115620008b657620008b562000852565b5b92915050565b620008c781620003e6565b82525050565b6000606082019050620008e4600083018662000824565b620008f36020830185620008bc565b620009026040830184620008bc565b949350505050565b6000602082019050620009216000830184620008bc565b92915050565b61151480620009376000396000f3fe608060405234801561001057600080fd5b50600436106100ea5760003560e01c8063632508871161008c57806395d89b411161006657806395d89b411461024b578063a9059cbb14610269578063d3db03cc14610299578063dd62ed3e146102b5576100ea565b806363250887146101e357806370a08231146101ff57806379cc67901461022f576100ea565b80631e522c3e116100c85780631e522c3e1461015b57806323b872dd14610179578063313ce567146101a957806342966c68146101c7576100ea565b806306fdde03146100ef578063095ea7b31461010d57806318160ddd1461013d575b600080fd5b6100f76102e5565b6040516101049190610e7d565b60405180910390f35b61012760048036038101906101229190610f38565b610377565b6040516101349190610f93565b60405180910390f35b61014561039a565b6040516101529190610fbd565b60405180910390f35b6101636103a4565b6040516101709190610fe7565b60405180910390f35b610193600480360381019061018e9190611002565b6103ca565b6040516101a09190610f93565b60405180910390f35b6101b16103f9565b6040516101be9190611071565b60405180910390f35b6101e160048036038101906101dc919061108c565b610402565b005b6101fd60048036038101906101f891906110b9565b610416565b005b610219600480360381019061021491906110b9565b6104d2565b6040516102269190610fbd565b60405180910390f35b61024960048036038101906102449190610f38565b61051a565b005b61025361053a565b6040516102609190610e7d565b60405180910390f35b610283600480360381019061027e9190610f38565b6105cc565b6040516102909190610f93565b60405180910390f35b6102b360048036038101906102ae91906110b9565b6105ef565b005b6102cf60048036038101906102ca91906110e6565b6106c4565b6040516102dc9190610fbd565b60405180910390f35b6060600380546102f490611155565b80601f016020809104026020016040519081016040528092919081815260200182805461032090611155565b801561036d5780601f106103425761010080835404028352916020019161036d565b820191906000526020600020905b81548152906001019060200180831161035057829003601f168201915b5050505050905090565b60008061038261074b565b905061038f818585610753565b600191505092915050565b6000600254905090565b600560009054906101000a900473ffffffffffffffffffffffffffffffffffffffff1681565b6000806103d561074b565b90506103e2858285610765565b6103ed8585856107f9565b60019150509392505050565b60006012905090565b61041361040d61074b565b826108ed565b50565b600560009054906101000a900473ffffffffffffffffffffffffffffffffffffffff1673ffffffffffffffffffffffffffffffffffffffff163373ffffffffffffffffffffffffffffffffffffffff16146104a6576040517f08c379a000000000000000000000000000000000000000000000000000000000815260040161049d906111d2565b60405180910390fd5b6104cf816104b26103f9565b600a6104be9190611354565b60016104ca919061139f565b61096f565b50565b60008060008373ffffffffffffffffffffffffffffffffffffffff1673ffffffffffffffffffffffffffffffffffffffff168152602001908152602001600020549050919050565b61052c8261052661074b565b83610765565b61053682826108ed565b5050565b60606004805461054990611155565b80601f016020809104026020016040519081016040528092919081815260200182805461057590611155565b80156105c25780601f10610597576101008083540402835291602001916105c2565b820191906000526020600020905b8154815290600101906020018083116105a557829003601f168201915b5050505050905090565b6000806105d761074b565b90506105e48185856107f9565b600191505092915050565b600073ffffffffffffffffffffffffffffffffffffffff16600560009054906101000a900473ffffffffffffffffffffffffffffffffffffffff1673ffffffffffffffffffffffffffffffffffffffff1614610680576040517f08c379a000000000000000000000000000000000000000000000000000000000815260040161067790611453565b60405180910390fd5b80600560006101000a81548173ffffffffffffffffffffffffffffffffffffffff021916908373ffffffffffffffffffffffffffffffffffffffff16021790555050565b6000600160008473ffffffffffffffffffffffffffffffffffffffff1673ffffffffffffffffffffffffffffffffffffffff16815260200190815260200160002060008373ffffffffffffffffffffffffffffffffffffffff1673ffffffffffffffffffffffffffffffffffffffff16815260200190815260200160002054905092915050565b600033905090565b61076083838360016109f1565b505050565b600061077184846106c4565b90507fffffffffffffffffffffffffffffffffffffffffffffffffffffffffffffffff81146107f357818110156107e3578281836040517ffb8f41b20000000000000000000000000000000000000000000000000000000081526004016107da93929190611473565b60405180910390fd5b6107f2848484840360006109f1565b5b50505050565b600073ffffffffffffffffffffffffffffffffffffffff168373ffffffffffffffffffffffffffffffffffffffff160361086b5760006040517f96c6fd1e0000000000000000000000000000000000000000000000000000000081526004016108629190610fe7565b60405180910390fd5b600073ffffffffffffffffffffffffffffffffffffffff168273ffffffffffffffffffffffffffffffffffffffff16036108dd5760006040517fec442f050000000000000000000000000000000000000000000000000000000081526004016108d49190610fe7565b60405180910390fd5b6108e8838383610bc8565b505050565b600073ffffffffffffffffffffffffffffffffffffffff168273ffffffffffffffffffffffffffffffffffffffff160361095f5760006040517f96c6fd1e0000000000000000000000000000000000000000000000000000000081526004016109569190610fe7565b60405180910390fd5b61096b82600083610bc8565b5050565b600073ffffffffffffffffffffffffffffffffffffffff168273ffffffffffffffffffffffffffffffffffffffff16036109e15760006040517fec442f050000000000000000000000000000000000000000000000000000000081526004016109d89190610fe7565b60405180910390fd5b6109ed60008383610bc8565b5050565b600073ffffffffffffffffffffffffffffffffffffffff168473ffffffffffffffffffffffffffffffffffffffff1603610a635760006040517fe602df05000000000000000000000000000000000000000000000000000000008152600401610a5a9190610fe7565b60405180910390fd5b600073ffffffffffffffffffffffffffffffffffffffff168373ffffffffffffffffffffffffffffffffffffffff1603610ad55760006040517f94280d62000000000000000000000000000000000000000000000000000000008152600401610acc9190610fe7565b60405180910390fd5b81600160008673ffffffffffffffffffffffffffffffffffffffff1673ffffffffffffffffffffffffffffffffffffffff16815260200190815260200160002060008573ffffffffffffffffffffffffffffffffffffffff1673ffffffffffffffffffffffffffffffffffffffff168152602001908152602001600020819055508015610bc2578273ffffffffffffffffffffffffffffffffffffffff168473ffffffffffffffffffffffffffffffffffffffff167f8c5be1e5ebec7d5bd14f71427d1e84f3dd0314c0f7b2291e5b200ac8c7c3b92584604051610bb99190610fbd565b60405180910390a35b50505050565b600073ffffffffffffffffffffffffffffffffffffffff168373ffffffffffffffffffffffffffffffffffffffff1603610c1a578060026000828254610c0e91906114aa565b92505081905550610ced565b60008060008573ffffffffffffffffffffffffffffffffffffffff1673ffffffffffffffffffffffffffffffffffffffff16815260200190815260200160002054905081811015610ca6578381836040517fe450d38c000000000000000000000000000000000000000000000000000000008152600401610c9d93929190611473565b60405180910390fd5b8181036000808673ffffffffffffffffffffffffffffffffffffffff1673ffffffffffffffffffffffffffffffffffffffff16815260200190815260200160002081905550505b600073ffffffffffffffffffffffffffffffffffffffff168273ffffffffffffffffffffffffffffffffffffffff1603610d365780600260008282540392505081905550610d83565b806000808473ffffffffffffffffffffffffffffffffffffffff1673ffffffffffffffffffffffffffffffffffffffff168152602001908152602001600020600082825401925050819055505b8173ffffffffffffffffffffffffffffffffffffffff168373ffffffffffffffffffffffffffffffffffffffff167fddf252ad1be2c89b69c2b068fc378daa952ba7f163c4a11628f55a4df523b3ef83604051610de09190610fbd565b60405180910390a3505050565b600081519050919050565b600082825260208201905092915050565b60005b83811015610e27578082015181840152602081019050610e0c565b60008484015250505050565b6000601f19601f8301169050919050565b6000610e4f82610ded565b610e598185610df8565b9350610e69818560208601610e09565b610e7281610e33565b840191505092915050565b60006020820190508181036000830152610e978184610e44565b905092915050565b600080fd5b600073ffffffffffffffffffffffffffffffffffffffff82169050919050565b6000610ecf82610ea4565b9050919050565b610edf81610ec4565b8114610eea57600080fd5b50565b600081359050610efc81610ed6565b92915050565b6000819050919050565b610f1581610f02565b8114610f2057600080fd5b50565b600081359050610f3281610f0c565b92915050565b60008060408385031215610f4f57610f4e610e9f565b5b6000610f5d85828601610eed565b9250506020610f6e85828601610f23565b9150509250929050565b60008115159050919050565b610f8d81610f78565b82525050565b6000602082019050610fa86000830184610f84565b92915050565b610fb781610f02565b82525050565b6000602082019050610fd26000830184610fae565b92915050565b610fe181610ec4565b82525050565b6000602082019050610ffc6000830184610fd8565b92915050565b60008060006060848603121561101b5761101a610e9f565b5b600061102986828701610eed565b935050602061103a86828701610eed565b925050604061104b86828701610f23565b9150509250925092565b600060ff82169050919050565b61106b81611055565b82525050565b60006020820190506110866000830184611062565b92915050565b6000602082840312156110a2576110a1610e9f565b5b60006110b084828501610f23565b91505092915050565b6000602082840312156110cf576110ce610e9f565b5b60006110dd84828501610eed565b91505092915050565b600080604083850312156110fd576110fc610e9f565b5b600061110b85828601610eed565b925050602061111c85828601610eed565b9150509250929050565b7f4e487b7100000000000000000000000000000000000000000000000000000000600052602260045260246000fd5b6000600282049050600182168061116d57607f821691505b6020821081036111805761117f611126565b5b50919050565b7f4e6f7420617574686f72697a6564000000000000000000000000000000000000600082015250565b60006111bc600e83610df8565b91506111c782611186565b602082019050919050565b600060208201905081810360008301526111eb816111af565b9050919050565b7f4e487b7100000000000000000000000000000000000000000000000000000000600052601160045260246000fd5b60008160011c9050919050565b6000808291508390505b600185111561127857808604811115611254576112536111f2565b5b60018516156112635780820291505b808102905061127185611221565b9450611238565b94509492505050565b600082611291576001905061134d565b8161129f576000905061134d565b81600181146112b557600281146112bf576112ee565b600191505061134d565b60ff8411156112d1576112d06111f2565b5b8360020a9150848211156112e8576112e76111f2565b5b5061134d565b5060208310610133831016604e8410600b84101617156113235782820a90508381111561131e5761131d6111f2565b5b61134d565b611330848484600161122e565b92509050818404811115611347576113466111f2565b5b81810290505b9392505050565b600061135f82610f02565b915061136a83611055565b92506113977fffffffffffffffffffffffffffffffffffffffffffffffffffffffffffffffff8484611281565b905092915050565b60006113aa82610f02565b91506113b583610f02565b92508282026113c381610f02565b915082820484148315176113da576113d96111f2565b5b5092915050565b7f526567697374726174696f6e20436f6e747261637420616c726561647920736560008201527f7400000000000000000000000000000000000000000000000000000000000000602082015250565b600061143d602183610df8565b9150611448826113e1565b604082019050919050565b6000602082019050818103600083015261146c81611430565b9050919050565b60006060820190506114886000830186610fd8565b6114956020830185610fae565b6114a26040830184610fae565b949350505050565b60006114b582610f02565b91506114c083610f02565b92508282019050808211156114d8576114d76111f2565b5b9291505056fea26469706673582212206720f7aa306a97c736058eaa5a0d7364322a0a00067782d5586f51c45382303664736f6c63430008140033",
  "linkReferences": {},
  "deployedLinkReferences": {}
}